{
  "_format": "hh3-artifact-1",
  "contractName": "MonoTrade",
  "sourceName": "contracts/orderbook/MonoTrade.sol",
  "abi": [
    {
      "inputs": [
        {
          "internalType": "address",
          "name": "_tokenA",
          "type": "address"
        },
        {
          "internalType": "address",
          "name": "_tokenB",
          "type": "address"
        },
        {
          "internalType": "uint8",
          "name": "_fee",
          "type": "uint8"
        }
      ],
      "stateMutability": "nonpayable",
      "type": "constructor"
    },
    {
      "anonymous": false,
      "inputs": [
        {
          "indexed": true,
          "internalType": "uint48",
          "name": "orderId",
          "type": "uint48"
        }
      ],
      "name": "CancelOrder",
      "type": "event"
    },
    {
      "anonymous": false,
      "inputs": [
        {
          "indexed": true,
          "internalType": "uint48",
          "name": "orderId",
          "type": "uint48"
        },
        {
          "indexed": false,
          "internalType": "uint112",
          "name": "tokenBIn",
          "type": "uint112"
        },
        {
          "indexed": false,
          "internalType": "uint112",
          "name": "tokenAWant",
          "type": "uint112"
        }
      ],
      "name": "MakeOrder",
      "type": "event"
    },
    {
      "anonymous": false,
      "inputs": [
        {
          "indexed": false,
          "internalType": "uint112",
          "name": "tokenAPaid",
          "type": "uint112"
        },
        {
          "indexed": false,
          "internalType": "uint112",
          "name": "tokenBGain",
          "type": "uint112"
        }
      ],
      "name": "TakeOrder",
      "type": "event"
    },
    {
      "inputs": [
        {
          "internalType": "uint48",
          "name": "orderId",
          "type": "uint48"
        }
      ],
      "name": "cancelOrder",
      "outputs": [
        {
          "internalType": "uint112",
          "name": "tokenBLeft",
          "type": "uint112"
        }
      ],
      "stateMutability": "nonpayable",
      "type": "function"
    },
    {
      "inputs": [
        {
          "internalType": "uint48",
          "name": "orderId",
          "type": "uint48"
        },
        {
          "internalType": "address",
          "name": "newOwner",
          "type": "address"
        }
      ],
      "name": "changeOrderOwner",
      "outputs": [],
      "stateMutability": "nonpayable",
      "type": "function"
    },
    {
      "inputs": [],
      "name": "count",
      "outputs": [
        {
          "internalType": "uint48",
          "name": "",
          "type": "uint48"
        }
      ],
      "stateMutability": "view",
      "type": "function"
    },
    {
      "inputs": [],
      "name": "factory",
      "outputs": [
        {
          "internalType": "address",
          "name": "",
          "type": "address"
        }
      ],
      "stateMutability": "view",
      "type": "function"
    },
    {
      "inputs": [],
      "name": "fee",
      "outputs": [
        {
          "internalType": "uint8",
          "name": "",
          "type": "uint8"
        }
      ],
      "stateMutability": "view",
      "type": "function"
    },
    {
      "inputs": [
        {
          "internalType": "uint112",
          "name": "tokenBIn",
          "type": "uint112"
        },
        {
          "internalType": "uint112",
          "name": "tokenAWant",
          "type": "uint112"
        },
        {
          "internalType": "uint48",
          "name": "findFromId",
          "type": "uint48"
        }
      ],
      "name": "findBeforeOrderId",
      "outputs": [
        {
          "internalType": "uint48",
          "name": "",
          "type": "uint48"
        }
      ],
      "stateMutability": "view",
      "type": "function"
    },
    {
      "inputs": [
        {
          "internalType": "uint48",
          "name": "orderId",
          "type": "uint48"
        }
      ],
      "name": "getOrder",
      "outputs": [
        {
          "components": [
            {
              "internalType": "uint48",
              "name": "beforeOrderId",
              "type": "uint48"
            },
            {
              "internalType": "uint48",
              "name": "afterOrderId",
              "type": "uint48"
            },
            {
              "internalType": "address",
              "name": "owner",
              "type": "address"
            },
            {
              "internalType": "uint112",
              "name": "tokenBIn",
              "type": "uint112"
            },
            {
              "internalType": "uint112",
              "name": "tokenAWant",
              "type": "uint112"
            },
            {
              "internalType": "uint32",
              "name": "progress",
              "type": "uint32"
            }
          ],
          "internalType": "struct MonoTrade.Order",
          "name": "",
          "type": "tuple"
        }
      ],
      "stateMutability": "view",
      "type": "function"
    },
    {
      "inputs": [
        {
          "internalType": "uint112",
          "name": "tokenBIn",
          "type": "uint112"
        },
        {
          "internalType": "uint112",
          "name": "tokenAWant",
          "type": "uint112"
        },
        {
          "internalType": "uint48",
          "name": "beforeOrderId",
          "type": "uint48"
        }
      ],
      "name": "makeOrder",
      "outputs": [
        {
          "internalType": "uint48",
          "name": "",
          "type": "uint48"
        }
      ],
      "stateMutability": "payable",
      "type": "function"
    },
    {
      "inputs": [
        {
          "internalType": "uint48",
          "name": "",
          "type": "uint48"
        }
      ],
      "name": "orders",
      "outputs": [
        {
          "internalType": "uint48",
          "name": "beforeOrderId",
          "type": "uint48"
        },
        {
          "internalType": "uint48",
          "name": "afterOrderId",
          "type": "uint48"
        },
        {
          "internalType": "address",
          "name": "owner",
          "type": "address"
        },
        {
          "internalType": "uint112",
          "name": "tokenBIn",
          "type": "uint112"
        },
        {
          "internalType": "uint112",
          "name": "tokenAWant",
          "type": "uint112"
        },
        {
          "internalType": "uint32",
          "name": "progress",
          "type": "uint32"
        }
      ],
      "stateMutability": "view",
      "type": "function"
    },
    {
      "inputs": [
        {
          "internalType": "uint112",
          "name": "tokenAIn",
          "type": "uint112"
        },
        {
          "internalType": "uint112",
          "name": "tokenBForPrice",
          "type": "uint112"
        }
      ],
      "name": "takeOrder",
      "outputs": [
        {
          "internalType": "uint112",
          "name": "tokenAPaid",
          "type": "uint112"
        },
        {
          "internalType": "uint112",
          "name": "tokenBGain",
          "type": "uint112"
        }
      ],
      "stateMutability": "payable",
      "type": "function"
    },
    {
      "inputs": [],
      "name": "tokenA",
      "outputs": [
        {
          "internalType": "address",
          "name": "",
          "type": "address"
        }
      ],
      "stateMutability": "view",
      "type": "function"
    },
    {
      "inputs": [],
      "name": "tokenB",
      "outputs": [
        {
          "internalType": "address",
          "name": "",
          "type": "address"
        }
      ],
      "stateMutability": "view",
      "type": "function"
    },
    {
      "inputs": [],
      "name": "topOrderId",
      "outputs": [
        {
          "internalType": "uint48",
          "name": "",
          "type": "uint48"
        }
      ],
      "stateMutability": "view",
      "type": "function"
    }
  ],
  "bytecode": "0x6101006040525f805465ffffffffffff1916905534801561001e575f5ffd5b506040516125a43803806125a483398101604081905261003d9161007a565b6001600160a01b03928316608052911660a05260ff1660c0523360e0526100c3565b80516001600160a01b0381168114610075575f5ffd5b919050565b5f5f5f6060848603121561008c575f5ffd5b6100958461005f565b92506100a36020850161005f565b9150604084015160ff811681146100b8575f5ffd5b809150509250925092565b60805160a05160c05160e0516124536101515f395f8181610401015281816108c4015281816108f4015261091a01525f81816104be01526109b801525f818161022c015281816109fa01528181610a30015281816111bf0152611d0101525f818161010d01528181610516015281816106af0152818161080f01528181610882015261105c01526124535ff3fe6080604052600436106100bf575f3560e01c806399a3bd231161007c578063d51356f211610057578063d51356f214610442578063d9d8f54114610463578063dbc4ba8714610476578063ddca3f43146104ad575f5ffd5b806399a3bd23146103d2578063c45a0155146103f0578063cf2f1e1f14610423575f5ffd5b806306661abd146100c35780630fc63d10146100fc5780632784e815146101475780635f64b55b1461021b578063692f3a441461024e5780637ce219aa14610281575b5f5ffd5b3480156100ce575f5ffd5b505f546100e09065ffffffffffff1681565b60405165ffffffffffff90911681526020015b60405180910390f35b348015610107575f5ffd5b5061012f7f000000000000000000000000000000000000000000000000000000000000000081565b6040516001600160a01b0390911681526020016100f3565b348015610152575f5ffd5b506101c5610161366004612212565b600160208190525f9182526040909120805491015465ffffffffffff80831692600160301b810490911691600160601b9091046001600160a01b0316906001600160701b0380821691600160701b810490911690600160e01b900463ffffffff1686565b6040805165ffffffffffff97881681529690951660208701526001600160a01b03909316938501939093526001600160701b039081166060850152909116608083015263ffffffff1660a082015260c0016100f3565b348015610226575f5ffd5b5061012f7f000000000000000000000000000000000000000000000000000000000000000081565b61026161025c366004612241565b6104f2565b604080516001600160701b039384168152929091166020830152016100f3565b34801561028c575f5ffd5b5061035761029b366004612212565b6040805160c0810182525f80825260208201819052918101829052606081018290526080810182905260a08101919091525065ffffffffffff9081165f90815260016020818152604092839020835160c08101855281548087168252600160301b810490961692810192909252600160601b9094046001600160a01b03169281019290925291909101546001600160701b038082166060840152600160701b8204166080830152600160e01b900463ffffffff1660a082015290565b6040516100f391905f60c08201905065ffffffffffff835116825265ffffffffffff602084015116602083015260018060a01b0360408401511660408301526001600160701b0360608401511660608301526001600160701b03608084015116608083015263ffffffff60a08401511660a083015292915050565b3480156103dd575f5ffd5b506002546100e09065ffffffffffff1681565b3480156103fb575f5ffd5b5061012f7f000000000000000000000000000000000000000000000000000000000000000081565b34801561042e575f5ffd5b506100e061043d366004612272565b610aad565b34801561044d575f5ffd5b5061046161045c3660046122c6565b610f32565b005b6100e0610471366004612272565b6110d1565b348015610481575f5ffd5b50610495610490366004612212565b611b23565b6040516001600160701b0390911681526020016100f3565b3480156104b8575f5ffd5b506104e07f000000000000000000000000000000000000000000000000000000000000000081565b60405160ff90911681526020016100f3565b6002545f90819065ffffffffffff16810361051157505f905080610aa6565b6105447f0000000000000000000000000000000000000000000000000000000000000000856001600160701b0316611d7a565b835b60025465ffffffffffff16156108625760025465ffffffffffff165f90815260016020819052604090912090810154610593906001600160701b03600160701b909104811690871661230f565b60018201546105af906001600160701b0390811690891661230f565b10156105bb5750610862565b60018101545f906105f79063ffffffff906105e890600160e01b81048316906001600160701b031661230f565b6105f2919061232c565b611e78565b60018301549091505f90610636906001600160701b0380821691600160701b900416610623858361234b565b6001600160701b03166105e8919061230f565b9050806001600160701b0316846001600160701b0316106107235761065b818561234b565b60018401549094506106779083906001600160701b031661234b565b610681908661236a565b945061068c83611ecc565b6001830180546001600160e01b03166001600160e01b031917905582546106ef907f0000000000000000000000000000000000000000000000000000000000000000906001600160a01b03600160601b909104166001600160701b038416611f61565b825465ffffffffffff1990811665ffffffffffff90811780865560028054909316600160301b90910490911617905561085a565b60018301545f9061074f906001600160701b03600160701b82048116916105e89190811690891661230f565b905061075b818761236a565b9550610767818461236a565b60018501549093506001600160701b039081169061078c9063ffffffff90861661230f565b610796919061232c565b6001850180546001600160e01b0316600160e01b63ffffffff938416810291909117918290559004811610156108075760018481018054601c906107e8908490600160e01b900463ffffffff16612389565b92506101000a81548163ffffffff021916908363ffffffff1602179055505b835461084e907f000000000000000000000000000000000000000000000000000000000000000090600160601b90046001600160a01b03166001600160701b038816611f61565b5f945050505050610862565b505050610546565b61086c818661234b565b92506001600160701b038116156108b1576108b17f000000000000000000000000000000000000000000000000000000000000000033836001600160701b0316611f61565b6001600160701b03821615610aa4575f5f7f00000000000000000000000000000000000000000000000000000000000000006001600160a01b03163b11610918577f0000000000000000000000000000000000000000000000000000000000000000610998565b7f00000000000000000000000000000000000000000000000000000000000000006001600160a01b031663017e7e586040518163ffffffff1660e01b8152600401602060405180830381865afa158015610974573d5f5f3e3d5ffd5b505050506040513d601f19601f8201168201806040525081019061099891906123a5565b9050336001600160a01b03821614610a2b575f6109e76127106105e860ff7f0000000000000000000000000000000000000000000000000000000000000000166001600160701b03881661230f565b90506109f3818561234b565b9350610a297f000000000000000000000000000000000000000000000000000000000000000083836001600160701b0316611f61565b505b610a5f7f000000000000000000000000000000000000000000000000000000000000000033856001600160701b0316611f61565b604080516001600160701b038087168252851660208201527fb7450b19733c0654e83e08ccdc9716e46e17ca73c620c0379de9b8b580836e3e910160405180910390a1505b505b9250929050565b6002545f9065ffffffffffff168103610ac757505f610f2b565b6040805160c0810182525f80825260208201819052918101829052606081018290526080810182905260a0810182905265ffffffffffff841615610d9f57505065ffffffffffff8281165f90815260016020818152604092839020835160c0810185528154808716808352600160301b8204881694830194909452600160601b90046001600160a01b031694810194909452909101546001600160701b038082166060850152600160701b8204166080840152600160e01b900463ffffffff1660a083015284921480610ba5575060608101516001600160701b0316155b15610c3857505060025465ffffffffffff9081165f81815260016020818152604092839020835160c08101855281548088168252600160301b810490971692810192909252600160601b9095046001600160a01b03169281019290925292909201546001600160701b038082166060850152600160701b8204166080840152600160e01b900463ffffffff1660a0830152905b805165ffffffffffff1615610d9a57805165ffffffffffff9081165f90815260016020818152604092839020835160c08101855281548087168252600160301b810490961692810192909252600160601b9094046001600160a01b03169281019290925291909101546001600160701b0380821660608401819052600160701b830482166080850152600160e01b90920463ffffffff1660a0840152610ce1919088169061230f565b876001600160701b031682608001516001600160701b0316610d03919061230f565b1115610d985760025465ffffffffffff9081165f81815260016020818152604092839020835160c08101855281548088168252600160301b810490971692810192909252600160601b9095046001600160a01b03169281019290925292909201546001600160701b038082166060850152600160701b8204166080840152600160e01b900463ffffffff1660a0830152935091505b505b610e2d565b505060025465ffffffffffff9081165f81815260016020818152604092839020835160c08101855281548088168252600160301b810490971692810192909252600160601b9095046001600160a01b03169281019290925292909201546001600160701b038082166060850152600160701b8204166080840152600160e01b900463ffffffff1660a0830152905b846001600160701b031681606001516001600160701b0316610e4f919061230f565b866001600160701b031682608001516001600160701b0316610e71919061230f565b1115610e8157519150610f2b9050565b806020015165ffffffffffff165f03610e9c57509050610f2b565b60209081015165ffffffffffff8082165f9081526001808552604091829020825160c08101845281548086168252600160301b810490951696810196909652600160601b9093046001600160a01b03169185019190915201546001600160701b038082166060850152600160701b8204166080840152600160e01b900463ffffffff1660a08301529150610e2d565b9392505050565b65ffffffffffff82165f9081526001602052604090208054600160601b90046001600160a01b03163314610fd35760405162461bcd60e51b815260206004820152603c60248201527f4d6f6e6f54726164653a206368616e67654f726465724f776e65723a3a20796f60448201527f7520617265206e6f74206f776e6572206f6620746865206f726465720000000060648201526084015b60405180910390fd5b805465ffffffffffff1665fffffffffffe190161105a576040805162461bcd60e51b81526020600482015260248101919091527f4d6f6e6f54726164653a206368616e67654f726465724f776e65723a3a20746860448201527f65206f7264657220697320616c72656164792072656d6f76656428646f6e65296064820152608401610fca565b7f00000000000000000000000000000000000000000000000000000000000000006001600160a01b03166110ad5780546001600160a01b038316600160601b026001600160601b03909116178155505050565b80546001600160601b0316600160601b6001600160a01b038416021781555b505050565b5f5f846001600160701b0316116111455760405162461bcd60e51b815260206004820152603260248201527f4d6f6e6f54726164653a206d616b654f726465723a3a20746f6b656e42496e206044820152710616d6f756e742063616e6e6f7420626520360741b6064820152608401610fca565b5f836001600160701b0316116111ba5760405162461bcd60e51b815260206004820152603460248201527f4d6f6e6f54726164653a206d616b654f726465723a3a20746f6b656e4157616e60448201527307420616d6f756e742063616e6e6f7420626520360641b6064820152608401610fca565b6111ed7f0000000000000000000000000000000000000000000000000000000000000000856001600160701b0316611d7a565b5f805481906112039065ffffffffffff166123c0565b82546101009290920a65ffffffffffff818102199093169183160217909155600254165f0361132f57506040805160c0810182525f8082526020808301828152338486019081526001600160701b03808a16606087019081528982166080880190815260a08801878152875465ffffffffffff908116895260019788905299882098518954965195516001600160a01b0316600160601b026001600160601b03968c16600160301b026001600160601b0319909816918c16919091179690961794909416949094178755519590930180549251915163ffffffff16600160e01b026001600160e01b03928516600160701b026001600160e01b03199094169690941695909517919091171617909155546002805465ffffffffffff191691909216908117909155610f2b565b8165ffffffffffff165f036115145760025465ffffffffffff165f90815260016020819052604090912090810154611373906001600160701b03808716911661230f565b6001820154611395906001600160701b0380891691600160701b90041661230f565b116113fc5760405162461bcd60e51b815260206004820152603160248201527f4d6f6e6f54726164653a206d616b654f726465723a3a20796f75722070726963604482015270329036bab9ba101f103a37b827b93232b960791b6064820152608401610fca565b5f8054825465ffffffffffff1990811665ffffffffffff928316179093556040805160c0810182528381526002805484166020808401918252338486019081526001600160701b03808e16606087019081528d82166080880190815260a088018b81528b548b168c52600195869052988b2097518854965194516001600160a01b0316600160601b026001600160601b03958c16600160301b026001600160601b0319909816918c1691909117969096179390931694909417865592519490910180549151955163ffffffff16600160e01b026001600160e01b03968416600160701b026001600160e01b03199093169590931694909417179390931692909217905591548254909316921691821790559050610f2b565b65ffffffffffff82165f90815260016020819052604082209081015490916001600160701b0390911690036115a35760405162461bcd60e51b815260206004820152602f60248201527f4d6f6e6f54726164653a206d616b654f726465723a3a206265666f72654f726460448201526e195c881a5cc81b9bdd08195e1a5cdd608a1b6064820152608401610fca565b805465ffffffffffff1665fffffffffffe190161161e5760405162461bcd60e51b815260206004820152603360248201527f4d6f6e6f54726164653a206d616b654f726465723a3a206265666f72654f726460448201527265722069732072656d6f76656428646f6e652960681b6064820152608401610fca565b6001810154611639906001600160701b03808716911661230f565b600182015461165b906001600160701b0380891691600160701b90041661230f565b11156116c75760405162461bcd60e51b815260206004820152603560248201527f4d6f6e6f54726164653a206d616b654f726465723a3a20796f75722070726963604482015274329036bab9ba101e1e903132b337b932a7b93232b960591b6064820152608401610fca565b8054600160301b900465ffffffffffff165f036117ed575f80548254600160301b65ffffffffffff928316810265ffffffffffff60301b19909216919091179093556040805160c08101825286831681526020808201858152338385019081526001600160701b03808d16606086019081528c82166080870190815260a087018a81528a548a168b52600196879052978a2096518754955194516001600160a01b0316600160601b026001600160601b03958b16909c026001600160601b0319909616908a16179490941792909216989098178455519290910180549151935163ffffffff16600160e01b026001600160e01b03948816600160701b026001600160e01b0319909316939097169290921717919091169390931790925554169050610f2b565b8054600160301b900465ffffffffffff165f90815260016020819052604082209081015490916001600160701b0390911690036118835760405162461bcd60e51b815260206004820152602e60248201527f4d6f6e6f54726164653a206d616b654f726465723a3a2061667465724f72646560448201526d1c881a5cc81b9bdd08195e1a5cdd60921b6064820152608401610fca565b805465ffffffffffff1665fffffffffffe19016118f75760405162461bcd60e51b815260206004820152602c60248201527f4d6f6e6f54726164653a206d616b654f726465723a3a2061667465724f72646560448201526b1c881a5cc81c995b5bdd995960a21b6064820152608401610fca565b6001810154611912906001600160701b03808816911661230f565b6001820154611934906001600160701b03808a1691600160701b90041661230f565b1161199d5760405162461bcd60e51b815260206004820152603360248201527f4d6f6e6f54726164653a206d616b654f726465723a3a20796f75722070726963604482015272329036bab9ba101f1030b33a32b927b93232b960691b6064820152608401610fca565b6040805160c08101825265ffffffffffff80871682528454600160301b9081900482166020808501918252338587019081526001600160701b03808e16606088019081528d8216608089019081525f60a08a0181815281548a1682526001968790528b82209a518b54985196516001600160a01b0316600160601b026001600160601b03978c168b026001600160601b0319909a16918c1691909117989098179590951696909617895590519790930180549351925163ffffffff16600160e01b026001600160e01b03938316600160701b026001600160e01b031990951698909216979097179290921716179093558254865490831690910265ffffffffffff60301b19919091161785558154845465ffffffffffff1916908216178455905491519116907f2336f98edea03fae5932cf9f26ce4784b74d1b3dec618bb0b78f68ba0c53fbb390611b0790899089906001600160701b0392831681529116602082015260400190565b60405180910390a250505f5465ffffffffffff16949350505050565b65ffffffffffff81165f9081526001602052604081208054600160601b90046001600160a01b03163314611bbf5760405162461bcd60e51b815260206004820152603760248201527f4d6f6e6f54726164653a2063616e63656c4f726465723a3a20796f752061726560448201527f206e6f74206f776e6572206f6620746865206f726465720000000000000000006064820152608401610fca565b805465ffffffffffff1665fffffffffffe1901611c445760405162461bcd60e51b815260206004820152603b60248201527f4d6f6e6f54726164653a2063616e63656c4f726465723a3a20746865206f726460448201527f657220697320616c72656164792072656d6f76656428646f6e652900000000006064820152608401610fca565b611c4d81611ecc565b60025465ffffffffffff808516911603611c8957805460028054600160301b90920465ffffffffffff1665ffffffffffff199092169190911790555b805465ffffffffffff191665ffffffffffff17815560018101545f90611ccc9063ffffffff906105e8906001600160701b03811690600160e01b9004831661230f565b6001830154909150611ce89082906001600160701b031661234b565b92506001600160701b03831615611d73578154611d40907f000000000000000000000000000000000000000000000000000000000000000090600160601b90046001600160a01b03166001600160701b038616611f61565b60405165ffffffffffff8516907fc56e02aba5fc42d044055fc90697eeddfd7802afd1cc3ffaabb94e7890d4d58b905f90a25b5050919050565b6001600160a01b038216611dfa57803414611df65760405162461bcd60e51b815260206004820152603660248201527f4d6f6e6f54726164653a205f736166655472616e7366657246726f6d3a3a206d6044820152750e6ce5cecc2d8eaca40d2e640dcdee840cadcdeeaced60531b6064820152608401610fca565b5050565b3415611e635760405162461bcd60e51b815260206004820152603260248201527f4d6f6e6f54726164653a205f736166655472616e7366657246726f6d3a3a206d604482015271073672e76616c7565206d75737420626520360741b6064820152608401610fca565b611df66001600160a01b038316333084611fbc565b806001600160701b0381168114611ec75760405162461bcd60e51b8152602060048201526013602482015272746f55696e743131323a206f766572666c6f7760681b6044820152606401610fca565b919050565b805465ffffffffffff1615611f1557805465ffffffffffff8082165f908152600160205260409020805465ffffffffffff60301b1916600160301b938490049092169092021790555b8054600160301b900465ffffffffffff1615611f5e578054600160301b810465ffffffffffff9081165f908152600160205260409020805465ffffffffffff1916919092161790555b50565b6001600160a01b038316611fa8576040516001600160a01b0383169082156108fc029083905f818181858888f19350505050158015611fa2573d5f5f3e3d5ffd5b50505050565b6110cc6001600160a01b03841683836120e7565b604080516001600160a01b0385811660248301528481166044830152606480830185905283518084039091018152608490920183526020820180516001600160e01b03166323b872dd60e01b17905291515f9283929088169161201f91906123e8565b5f604051808303815f865af19150503d805f8114612058576040519150601f19603f3d011682016040523d82523d5f602084013e61205d565b606091505b509150915081801561208757508051158061208757508080602001905181019061208791906123fe565b6120df5760405162461bcd60e51b8152602060048201526024808201527f5472616e7366657248656c7065723a205452414e534645525f46524f4d5f46416044820152631253115160e21b6064820152608401610fca565b505050505050565b604080516001600160a01b038481166024830152604480830185905283518084039091018152606490920183526020820180516001600160e01b031663a9059cbb60e01b17905291515f9283929087169161214291906123e8565b5f604051808303815f865af19150503d805f811461217b576040519150601f19603f3d011682016040523d82523d5f602084013e612180565b606091505b50915091508180156121aa5750805115806121aa5750808060200190518101906121aa91906123fe565b6121f65760405162461bcd60e51b815260206004820152601f60248201527f5472616e7366657248656c7065723a205452414e534645525f4641494c4544006044820152606401610fca565b5050505050565b803565ffffffffffff81168114611ec7575f5ffd5b5f60208284031215612222575f5ffd5b610f2b826121fd565b80356001600160701b0381168114611ec7575f5ffd5b5f5f60408385031215612252575f5ffd5b61225b8361222b565b91506122696020840161222b565b90509250929050565b5f5f5f60608486031215612284575f5ffd5b61228d8461222b565b925061229b6020850161222b565b91506122a9604085016121fd565b90509250925092565b6001600160a01b0381168114611f5e575f5ffd5b5f5f604083850312156122d7575f5ffd5b6122e0836121fd565b915060208301356122f0816122b2565b809150509250929050565b634e487b7160e01b5f52601160045260245ffd5b8082028115828204841417612326576123266122fb565b92915050565b5f8261234657634e487b7160e01b5f52601260045260245ffd5b500490565b6001600160701b038281168282160390811115612326576123266122fb565b6001600160701b038181168382160190811115612326576123266122fb565b63ffffffff8181168382160190811115612326576123266122fb565b5f602082840312156123b5575f5ffd5b8151610f2b816122b2565b5f65ffffffffffff821665ffffffffffff81036123df576123df6122fb565b60010192915050565b5f82518060208501845e5f920191825250919050565b5f6020828403121561240e575f5ffd5b81518015158114610f2b575f5ffdfea26469706673582212205e43ca6ec8feaa3abcac79324847416263bd6a90cc43f124550118ada27c3b8a64736f6c634300081c0033",
  "linkReferences": {},
  "deployedLinkReferences": {},
  "immutableReferences": {
    "57668": [
      {
        "length": 32,
        "start": 269
      },
      {
        "length": 32,
        "start": 1302
      },
      {
        "length": 32,
        "start": 1711
      },
      {
        "length": 32,
        "start": 2063
      },
      {
        "length": 32,
        "start": 2178
      },
      {
        "length": 32,
        "start": 4188
      }
    ],
    "57670": [
      {
        "length": 32,
        "start": 556
      },
      {
        "length": 32,
        "start": 2554
      },
      {
        "length": 32,
        "start": 2608
      },
      {
        "length": 32,
        "start": 4543
      },
      {
        "length": 32,
        "start": 7425
      }
    ],
    "57672": [
      {
        "length": 32,
        "start": 1214
      },
      {
        "length": 32,
        "start": 2488
      }
    ],
    "57674": [
      {
        "length": 32,
        "start": 1025
      },
      {
        "length": 32,
        "start": 2244
      },
      {
        "length": 32,
        "start": 2292
      },
      {
        "length": 32,
        "start": 2330
      }
    ]
  },
  "inputSourceName": "project/contracts/orderbook/MonoTrade.sol",
  "buildInfoId": "solc-0_8_28-63f0ac7f7f485453dfb6e8b3a5c6a79b453058bf"
}