{
  "_format": "hh3-artifact-1",
  "contractName": "TradeQuoter",
  "sourceName": "contracts/orderbook/TradeQuoter.sol",
  "abi": [
    {
      "inputs": [
        {
          "internalType": "uint8",
          "name": "_fee",
          "type": "uint8"
        }
      ],
      "stateMutability": "nonpayable",
      "type": "constructor"
    },
    {
      "inputs": [],
      "name": "fee",
      "outputs": [
        {
          "internalType": "uint8",
          "name": "",
          "type": "uint8"
        }
      ],
      "stateMutability": "view",
      "type": "function"
    },
    {
      "inputs": [
        {
          "internalType": "address",
          "name": "tradeAddr",
          "type": "address"
        },
        {
          "internalType": "uint112",
          "name": "tokenAIn",
          "type": "uint112"
        },
        {
          "internalType": "uint112",
          "name": "minTokenBOut",
          "type": "uint112"
        }
      ],
      "name": "viewSwapExactIn",
      "outputs": [
        {
          "internalType": "uint112",
          "name": "tokenAPaid",
          "type": "uint112"
        },
        {
          "internalType": "uint112",
          "name": "tokenBGain",
          "type": "uint112"
        },
        {
          "internalType": "uint112",
          "name": "tokenBForPrice",
          "type": "uint112"
        }
      ],
      "stateMutability": "view",
      "type": "function"
    },
    {
      "inputs": [
        {
          "internalType": "address",
          "name": "tradeAddr",
          "type": "address"
        },
        {
          "internalType": "uint112",
          "name": "maxTokenAIn",
          "type": "uint112"
        },
        {
          "internalType": "uint112",
          "name": "tokenBOut",
          "type": "uint112"
        }
      ],
      "name": "viewSwapExactOut",
      "outputs": [
        {
          "internalType": "uint112",
          "name": "tokenAPaid",
          "type": "uint112"
        },
        {
          "internalType": "uint112",
          "name": "tokenBGain",
          "type": "uint112"
        },
        {
          "internalType": "uint112",
          "name": "tokenBForPrice",
          "type": "uint112"
        }
      ],
      "stateMutability": "view",
      "type": "function"
    }
  ],
  "bytecode": "0x60a060405234801561000f575f5ffd5b50604051610d91380380610d9183398101604081905261002e91610039565b60ff16608052610060565b5f60208284031215610049575f5ffd5b815160ff81168114610059575f5ffd5b9392505050565b608051610d0561008c5f395f8181608a0152818161016201528181610591015261066b0152610d055ff3fe608060405234801561000f575f5ffd5b506004361061003f575f3560e01c8063be394f6214610043578063ddca3f4314610085578063e4683604146100be575b5f5ffd5b610056610051366004610a65565b6100d1565b604080516001600160701b03948516815292841660208401529216918101919091526060015b60405180910390f35b6100ac7f000000000000000000000000000000000000000000000000000000000000000081565b60405160ff909116815260200161007c565b6100566100cc366004610a65565b6105db565b5f5f5f5f8690505f816001600160a01b03166399a3bd236040518163ffffffff1660e01b8152600401602060405180830381865afa158015610115573d5f5f3e3d5ffd5b505050506040513d601f19601f820116820180604052508101906101399190610ac2565b90508065ffffffffffff165f0361015a575f5f5f94509450945050506105d2565b8661018a60ff7f000000000000000000000000000000000000000000000000000000000000000016612710610af6565b61ffff1661019a88612710610b16565b6101a49190610b53565b96505b65ffffffffffff82161561057857604051633e710cd560e11b815265ffffffffffff831660048201525f906001600160a01b03851690637ce219aa9060240160c060405180830381865afa158015610201573d5f5f3e3d5ffd5b505050506040513d601f19601f820116820180604052508101906102259190610ba9565b90505f61026463ffffffff801683606001516001600160701b03168460a0015163ffffffff166102559190610c54565b61025f9190610c6b565b6109e6565b90505f6102b283606001516001600160701b031684608001516001600160701b0316846001600160701b031686606001516001600160701b03166102a89190610c7e565b6102559190610c54565b90505f896001600160701b03165f0361031d578a6001600160701b031684608001516001600160701b03166102e79190610c54565b8c6001600160701b031685606001516001600160701b03166103099190610c54565b1061031857506001600160701b035b61045d565b6103336001600160701b03808e16908b16610c54565b6103496001600160701b03808d16908e16610c54565b11610410575f84608001516001600160701b03168d6001600160701b031686606001516001600160701b031661037f9190610c54565b6103899190610c6b565b90508b6001600160701b03168110156103ff576103f86103b2826001600160701b038f16610c7e565b8c6001600160701b03168e6001600160701b03166103d09190610c54565b8f6001600160701b03168d6001600160701b03166103ee9190610c54565b6102559190610c7e565b915061040a565b6001600160701b0391505b5061045d565b60405162461bcd60e51b815260206004820152601d60248201527f536f6d657468696e672077726f6e6720696e205f6765745061696e282900000060448201526064015b60405180910390fd5b816001600160701b0316816001600160701b0316111561047a5750805b846001600160701b0316816001600160701b031611156104975750835b806001600160701b03165f036104b05750505050610578565b5f6104e485608001516001600160701b031686606001516001600160701b0316846001600160701b03166102559190610c54565b90506104f0828c610c91565b9a506104fc818b610c91565b99506105088b8e610cb0565b955061053d85608001516001600160701b031686606001516001600160701b03168d6001600160701b03166102559190610c54565b9850826001600160701b0316826001600160701b031603610564578460200151965061056e565b5050505050610578565b50505050506101a7565b6001600160701b038516156105ce576127106105b760ff7f00000000000000000000000000000000000000000000000000000000000000001687610b16565b6105c19190610b53565b6105cb9086610cb0565b94505b5050505b93509350939050565b5f5f5f5f8690505f816001600160a01b03166399a3bd236040518163ffffffff1660e01b8152600401602060405180830381865afa15801561061f573d5f5f3e3d5ffd5b505050506040513d601f19601f820116820180604052508101906106439190610ac2565b90508065ffffffffffff165f03610664575f5f5f94509450945050506105d2565b61069360ff7f000000000000000000000000000000000000000000000000000000000000000016612710610af6565b61ffff166106a387612710610b16565b6106ad9190610b53565b9550855b65ffffffffffff82161561057857604051633e710cd560e11b815265ffffffffffff831660048201525f906001600160a01b03851690637ce219aa9060240160c060405180830381865afa15801561070b573d5f5f3e3d5ffd5b505050506040513d601f19601f8201168201806040525081019061072f9190610ba9565b90505f61075f63ffffffff801683606001516001600160701b03168460a0015163ffffffff166102559190610c54565b90505f8183606001516107729190610cb0565b90505f896001600160701b03165f036107dd578a6001600160701b031684608001516001600160701b03166107a79190610c54565b8c6001600160701b031685606001516001600160701b03166107c99190610c54565b106107d857506001600160701b035b610886565b6107f36001600160701b03808e16908b16610c54565b6108096001600160701b03808d16908e16610c54565b11610410575f84608001516001600160701b03168d6001600160701b031686606001516001600160701b031661083f9190610c54565b6108499190610c6b565b90508b6001600160701b0316811015610879576108726103b2826001600160701b038f16610c7e565b9150610884565b6001600160701b0391505b505b5f6001600160701b03828116146108cf576108ca85608001516001600160701b031686606001516001600160701b0316846001600160701b03166102559190610c54565b6108d8565b6001600160701b035b9050826001600160701b0316816001600160701b031611156108f75750815b856001600160701b0316816001600160701b031611156109145750845b806001600160701b03165f0361092e575050505050610578565b61096185606001516001600160701b031686608001516001600160701b0316836001600160701b03166102559190610c54565b915061096d828c610c91565b9a50610979818b610c91565b99506109858a8d610cb0565b95506109ba85608001516001600160701b031686606001516001600160701b03168d6001600160701b03166102559190610c54565b9850826001600160701b0316816001600160701b031603610564578460200151965050505050506106b1565b806001600160701b0381168114610a355760405162461bcd60e51b8152602060048201526013602482015272746f55696e743131323a206f766572666c6f7760681b6044820152606401610454565b919050565b6001600160a01b0381168114610a4e575f5ffd5b50565b6001600160701b0381168114610a4e575f5ffd5b5f5f5f60608486031215610a77575f5ffd5b8335610a8281610a3a565b92506020840135610a9281610a51565b91506040840135610aa281610a51565b809150509250925092565b805165ffffffffffff81168114610a35575f5ffd5b5f60208284031215610ad2575f5ffd5b610adb82610aad565b9392505050565b634e487b7160e01b5f52601160045260245ffd5b61ffff8281168282160390811115610b1057610b10610ae2565b92915050565b6001600160701b038181168382160290811690818114610b3857610b38610ae2565b5092915050565b634e487b7160e01b5f52601260045260245ffd5b5f6001600160701b03831680610b6b57610b6b610b3f565b806001600160701b0384160491505092915050565b8051610a3581610a3a565b8051610a3581610a51565b805163ffffffff81168114610a35575f5ffd5b5f60c0828403128015610bba575f5ffd5b5060405160c0810167ffffffffffffffff81118282101715610bea57634e487b7160e01b5f52604160045260245ffd5b604052610bf683610aad565b8152610c0460208401610aad565b6020820152610c1560408401610b80565b6040820152610c2660608401610b8b565b6060820152610c3760808401610b8b565b6080820152610c4860a08401610b96565b60a08201529392505050565b8082028115828204841417610b1057610b10610ae2565b5f82610c7957610c79610b3f565b500490565b81810381811115610b1057610b10610ae2565b6001600160701b038181168382160190811115610b1057610b10610ae2565b6001600160701b038281168282160390811115610b1057610b10610ae256fea26469706673582212205e6eaf6c0ad3dfd99191a68376279123a31db4c8be17298d69c4036adb15af0264736f6c634300081c0033",
  "linkReferences": {},
  "deployedLinkReferences": {},
  "immutableReferences": {
    "58788": [
      {
        "length": 32,
        "start": 138
      },
      {
        "length": 32,
        "start": 354
      },
      {
        "length": 32,
        "start": 1425
      },
      {
        "length": 32,
        "start": 1643
      }
    ]
  },
  "inputSourceName": "project/contracts/orderbook/TradeQuoter.sol",
  "buildInfoId": "solc-0_8_28-63f0ac7f7f485453dfb6e8b3a5c6a79b453058bf"
}