{
  "_format": "hh3-artifact-1",
  "contractName": "TradeService",
  "sourceName": "contracts/orderbook/TradeService.sol",
  "abi": [
    {
      "inputs": [
        {
          "internalType": "address",
          "name": "initialOwner",
          "type": "address"
        }
      ],
      "stateMutability": "nonpayable",
      "type": "constructor"
    },
    {
      "inputs": [
        {
          "internalType": "address",
          "name": "owner",
          "type": "address"
        }
      ],
      "name": "OwnableInvalidOwner",
      "type": "error"
    },
    {
      "inputs": [
        {
          "internalType": "address",
          "name": "account",
          "type": "address"
        }
      ],
      "name": "OwnableUnauthorizedAccount",
      "type": "error"
    },
    {
      "anonymous": false,
      "inputs": [
        {
          "indexed": true,
          "internalType": "address",
          "name": "previousOwner",
          "type": "address"
        },
        {
          "indexed": true,
          "internalType": "address",
          "name": "newOwner",
          "type": "address"
        }
      ],
      "name": "OwnershipTransferStarted",
      "type": "event"
    },
    {
      "anonymous": false,
      "inputs": [
        {
          "indexed": true,
          "internalType": "address",
          "name": "previousOwner",
          "type": "address"
        },
        {
          "indexed": true,
          "internalType": "address",
          "name": "newOwner",
          "type": "address"
        }
      ],
      "name": "OwnershipTransferred",
      "type": "event"
    },
    {
      "anonymous": false,
      "inputs": [
        {
          "indexed": true,
          "internalType": "address",
          "name": "tokenA",
          "type": "address"
        },
        {
          "indexed": true,
          "internalType": "address",
          "name": "tokenB",
          "type": "address"
        },
        {
          "indexed": false,
          "internalType": "address",
          "name": "tradeAB",
          "type": "address"
        },
        {
          "indexed": false,
          "internalType": "address",
          "name": "tradeBA",
          "type": "address"
        }
      ],
      "name": "PairCreated",
      "type": "event"
    },
    {
      "inputs": [],
      "name": "acceptOwnership",
      "outputs": [],
      "stateMutability": "nonpayable",
      "type": "function"
    },
    {
      "inputs": [
        {
          "internalType": "address",
          "name": "_feeTo",
          "type": "address"
        }
      ],
      "name": "changeFeeTo",
      "outputs": [],
      "stateMutability": "nonpayable",
      "type": "function"
    },
    {
      "inputs": [
        {
          "internalType": "address",
          "name": "tokenA",
          "type": "address"
        },
        {
          "internalType": "address",
          "name": "tokenB",
          "type": "address"
        }
      ],
      "name": "computeTradeAddr",
      "outputs": [
        {
          "internalType": "address",
          "name": "predictedAddr",
          "type": "address"
        }
      ],
      "stateMutability": "view",
      "type": "function"
    },
    {
      "inputs": [
        {
          "internalType": "address",
          "name": "tokenA",
          "type": "address"
        },
        {
          "internalType": "address",
          "name": "tokenB",
          "type": "address"
        }
      ],
      "name": "createPair",
      "outputs": [
        {
          "internalType": "address",
          "name": "tradeAB",
          "type": "address"
        },
        {
          "internalType": "address",
          "name": "tradeBA",
          "type": "address"
        }
      ],
      "stateMutability": "nonpayable",
      "type": "function"
    },
    {
      "inputs": [],
      "name": "fee",
      "outputs": [
        {
          "internalType": "uint8",
          "name": "",
          "type": "uint8"
        }
      ],
      "stateMutability": "view",
      "type": "function"
    },
    {
      "inputs": [],
      "name": "feeTo",
      "outputs": [
        {
          "internalType": "address",
          "name": "",
          "type": "address"
        }
      ],
      "stateMutability": "view",
      "type": "function"
    },
    {
      "inputs": [
        {
          "internalType": "address",
          "name": "tokenIn",
          "type": "address"
        },
        {
          "internalType": "address",
          "name": "tokenOut",
          "type": "address"
        },
        {
          "internalType": "uint112",
          "name": "amountIn",
          "type": "uint112"
        },
        {
          "internalType": "uint112",
          "name": "amountWant",
          "type": "uint112"
        },
        {
          "internalType": "uint48",
          "name": "findFromId",
          "type": "uint48"
        }
      ],
      "name": "getBeforeOrderId",
      "outputs": [
        {
          "internalType": "uint48",
          "name": "beforeOrderId",
          "type": "uint48"
        }
      ],
      "stateMutability": "view",
      "type": "function"
    },
    {
      "inputs": [
        {
          "internalType": "address",
          "name": "tokenA",
          "type": "address"
        },
        {
          "internalType": "address",
          "name": "tokenB",
          "type": "address"
        }
      ],
      "name": "getPair",
      "outputs": [
        {
          "internalType": "address",
          "name": "tradeAB",
          "type": "address"
        },
        {
          "internalType": "address",
          "name": "tradeBA",
          "type": "address"
        }
      ],
      "stateMutability": "view",
      "type": "function"
    },
    {
      "inputs": [
        {
          "internalType": "address",
          "name": "tokenIn",
          "type": "address"
        },
        {
          "internalType": "address",
          "name": "tokenOut",
          "type": "address"
        },
        {
          "internalType": "uint48",
          "name": "fromOrderId",
          "type": "uint48"
        },
        {
          "internalType": "uint8",
          "name": "num",
          "type": "uint8"
        }
      ],
      "name": "getPendingOrders",
      "outputs": [
        {
          "components": [
            {
              "internalType": "uint48",
              "name": "orderId",
              "type": "uint48"
            },
            {
              "internalType": "uint112",
              "name": "amountIn",
              "type": "uint112"
            },
            {
              "internalType": "uint112",
              "name": "amountWant",
              "type": "uint112"
            },
            {
              "internalType": "uint32",
              "name": "progress",
              "type": "uint32"
            }
          ],
          "internalType": "struct TradeService.PendingOrder[]",
          "name": "",
          "type": "tuple[]"
        }
      ],
      "stateMutability": "view",
      "type": "function"
    },
    {
      "inputs": [
        {
          "internalType": "address",
          "name": "tokenIn",
          "type": "address"
        },
        {
          "internalType": "address",
          "name": "tokenOut",
          "type": "address"
        }
      ],
      "name": "getPendingOrdersTopId",
      "outputs": [
        {
          "internalType": "uint48",
          "name": "topOrderId",
          "type": "uint48"
        }
      ],
      "stateMutability": "view",
      "type": "function"
    },
    {
      "inputs": [
        {
          "internalType": "address",
          "name": "tokenIn",
          "type": "address"
        },
        {
          "internalType": "address",
          "name": "tokenOut",
          "type": "address"
        }
      ],
      "name": "getTradeOfPendingOrder",
      "outputs": [
        {
          "internalType": "address",
          "name": "tradeAddr",
          "type": "address"
        }
      ],
      "stateMutability": "view",
      "type": "function"
    },
    {
      "inputs": [
        {
          "internalType": "address",
          "name": "tokenIn",
          "type": "address"
        },
        {
          "internalType": "address",
          "name": "tokenOut",
          "type": "address"
        }
      ],
      "name": "getTradeOfTakeOrder",
      "outputs": [
        {
          "internalType": "address",
          "name": "tradeAddr",
          "type": "address"
        }
      ],
      "stateMutability": "view",
      "type": "function"
    },
    {
      "inputs": [
        {
          "internalType": "address",
          "name": "user",
          "type": "address"
        },
        {
          "internalType": "uint48",
          "name": "lastIndex",
          "type": "uint48"
        },
        {
          "internalType": "uint48",
          "name": "num",
          "type": "uint48"
        }
      ],
      "name": "getUserOrders",
      "outputs": [
        {
          "components": [
            {
              "internalType": "uint48",
              "name": "index",
              "type": "uint48"
            },
            {
              "internalType": "address",
              "name": "trade",
              "type": "address"
            },
            {
              "internalType": "string",
              "name": "tokenInSymbol",
              "type": "string"
            },
            {
              "internalType": "string",
              "name": "tokenOutSymbol",
              "type": "string"
            },
            {
              "internalType": "uint48",
              "name": "orderId",
              "type": "uint48"
            },
            {
              "internalType": "uint32",
              "name": "createTime",
              "type": "uint32"
            },
            {
              "internalType": "uint112",
              "name": "amountIn",
              "type": "uint112"
            },
            {
              "internalType": "uint112",
              "name": "amountOut",
              "type": "uint112"
            },
            {
              "internalType": "uint32",
              "name": "progress",
              "type": "uint32"
            },
            {
              "internalType": "bool",
              "name": "isRemoved",
              "type": "bool"
            }
          ],
          "internalType": "struct TradeService.UserOrder[]",
          "name": "",
          "type": "tuple[]"
        }
      ],
      "stateMutability": "view",
      "type": "function"
    },
    {
      "inputs": [
        {
          "internalType": "address",
          "name": "tokenIn",
          "type": "address"
        },
        {
          "internalType": "address",
          "name": "tokenOut",
          "type": "address"
        },
        {
          "internalType": "uint112",
          "name": "amountIn",
          "type": "uint112"
        },
        {
          "internalType": "uint112",
          "name": "amountOut",
          "type": "uint112"
        },
        {
          "internalType": "uint48",
          "name": "beforeOrderId",
          "type": "uint48"
        }
      ],
      "name": "makeOrder",
      "outputs": [
        {
          "internalType": "uint48",
          "name": "newOrderId",
          "type": "uint48"
        }
      ],
      "stateMutability": "payable",
      "type": "function"
    },
    {
      "inputs": [],
      "name": "owner",
      "outputs": [
        {
          "internalType": "address",
          "name": "",
          "type": "address"
        }
      ],
      "stateMutability": "view",
      "type": "function"
    },
    {
      "inputs": [],
      "name": "pendingOwner",
      "outputs": [
        {
          "internalType": "address",
          "name": "",
          "type": "address"
        }
      ],
      "stateMutability": "view",
      "type": "function"
    },
    {
      "inputs": [
        {
          "internalType": "address",
          "name": "tokenIn",
          "type": "address"
        },
        {
          "internalType": "address",
          "name": "tokenOut",
          "type": "address"
        },
        {
          "internalType": "uint112",
          "name": "amountIn",
          "type": "uint112"
        },
        {
          "internalType": "uint112",
          "name": "amountOutForPrice",
          "type": "uint112"
        }
      ],
      "name": "placeOrder",
      "outputs": [
        {
          "internalType": "uint112",
          "name": "tokenPaid",
          "type": "uint112"
        },
        {
          "internalType": "uint112",
          "name": "tokenGain",
          "type": "uint112"
        }
      ],
      "stateMutability": "payable",
      "type": "function"
    },
    {
      "inputs": [
        {
          "internalType": "address",
          "name": "tokenA",
          "type": "address"
        },
        {
          "internalType": "address",
          "name": "tokenB",
          "type": "address"
        }
      ],
      "name": "refreshApprove",
      "outputs": [],
      "stateMutability": "nonpayable",
      "type": "function"
    },
    {
      "inputs": [],
      "name": "renounceOwnership",
      "outputs": [],
      "stateMutability": "nonpayable",
      "type": "function"
    },
    {
      "inputs": [
        {
          "internalType": "address",
          "name": "tokenIn",
          "type": "address"
        },
        {
          "internalType": "address",
          "name": "tokenOut",
          "type": "address"
        },
        {
          "internalType": "uint112",
          "name": "amountIn",
          "type": "uint112"
        },
        {
          "internalType": "uint112",
          "name": "amountOutForPrice",
          "type": "uint112"
        }
      ],
      "name": "takeOrder",
      "outputs": [
        {
          "internalType": "uint112",
          "name": "tokenPaid",
          "type": "uint112"
        },
        {
          "internalType": "uint112",
          "name": "tokenGain",
          "type": "uint112"
        }
      ],
      "stateMutability": "payable",
      "type": "function"
    },
    {
      "inputs": [
        {
          "internalType": "address",
          "name": "newOwner",
          "type": "address"
        }
      ],
      "name": "transferOwnership",
      "outputs": [],
      "stateMutability": "nonpayable",
      "type": "function"
    },
    {
      "inputs": [
        {
          "internalType": "address",
          "name": "",
          "type": "address"
        }
      ],
      "name": "userOrdersLength",
      "outputs": [
        {
          "internalType": "uint48",
          "name": "",
          "type": "uint48"
        }
      ],
      "stateMutability": "view",
      "type": "function"
    },
    {
      "stateMutability": "payable",
      "type": "receive"
    }
  ],
  "bytecode": "0x608060405234801561000f575f5ffd5b5060405161537038038061537083398101604081905261002e916100f6565b806001600160a01b03811661005c57604051631e4fbdf760e01b81525f600482015260240160405180910390fd5b6100658161008b565b50600280546001600160a01b0319166001600160a01b0392909216919091179055610123565b600180546001600160a01b03191690556100a4816100a7565b50565b5f80546001600160a01b038381166001600160a01b0319831681178455604051919092169283917f8be0079c531659141344cd1fd0a4f28419497f9722a3daafe3b4186f6b6457e09190a35050565b5f60208284031215610106575f5ffd5b81516001600160a01b038116811461011c575f5ffd5b9392505050565b615240806101305f395ff3fe608060405260043610610134575f3560e01c80638da5cb5b116100a8578063ddca3f431161006d578063ddca3f4314610389578063e30c3978146103af578063e6a43905146103cc578063f261627414610428578063f2fde38b14610447578063f519e79f14610466575f5ffd5b80638da5cb5b146102e95780639b00f20714610305578063af9863bb14610318578063c9c653961461032b578063db3cb0bd1461036a575f5ffd5b80633e24a483116100f95780633e24a48314610210578063557c32c11461022f578063559ab5e51461025b578063715018a61461028e57806377309f4e146102a257806379ba5097146102d5575f5ffd5b8063017e7e581461013f578063076e7b881461017b5780630ad4744f1461019a57806323b1cde4146101d05780632f388427146101f1575f5ffd5b3661013b57005b5f5ffd5b34801561014a575f5ffd5b5060025461015e906001600160a01b031681565b6040516001600160a01b0390911681526020015b60405180910390f35b348015610186575f5ffd5b5061015e610195366004612395565b610492565b3480156101a5575f5ffd5b506101b96101b4366004612395565b6104be565b60405165ffffffffffff9091168152602001610172565b3480156101db575f5ffd5b506101ef6101ea3660046123cc565b610548565b005b3480156101fc575f5ffd5b506101ef61020b366004612395565b610572565b34801561021b575f5ffd5b5061015e61022a366004612395565b61065d565b34801561023a575f5ffd5b5061024e6102493660046123fa565b610686565b6040516101729190612458565b61026e6102693660046124f4565b610979565b604080516001600160701b03938416815292909116602083015201610172565b348015610299575f5ffd5b506101ef610cb7565b3480156102ad575f5ffd5b506101b96102bc3660046123cc565b60056020525f908152604090205465ffffffffffff1681565b3480156102e0575f5ffd5b506101ef610cca565b3480156102f4575f5ffd5b505f546001600160a01b031661015e565b6101b9610313366004612542565b610d0e565b61026e6103263660046124f4565b610eb8565b348015610336575f5ffd5b5061034a610345366004612395565b610feb565b604080516001600160a01b03938416815292909116602083015201610172565b348015610375575f5ffd5b506101b9610384366004612542565b611330565b348015610394575f5ffd5b5061039d600a81565b60405160ff9091168152602001610172565b3480156103ba575f5ffd5b506001546001600160a01b031661015e565b3480156103d7575f5ffd5b5061034a6103e6366004612395565b6001600160a01b038083165f81815260036020818152604080842087871685528252808420549282528084209484529390529190205490821691169250929050565b348015610433575f5ffd5b5061015e610442366004612395565b6113cb565b348015610452575f5ffd5b506101ef6104613660046123cc565b6114cd565b348015610471575f5ffd5b506104856104803660046125af565b61153d565b6040516101729190612625565b6001600160a01b039081165f908152600360209081526040808320948416835293905291909120541690565b6001600160a01b038082165f908152600360209081526040808320868516845282528083205481516399a3bd2360e01b815291519394169283926399a3bd2392600480820193918290030181865afa15801561051c573d5f5f3e3d5ffd5b505050506040513d601f19601f820116820180604052508101906105409190612777565b949350505050565b6105506119df565b600280546001600160a01b0319166001600160a01b0392909216919091179055565b6001600160a01b038083165f908152600360209081526040808320858516845290915290205416806105bf5760405162461bcd60e51b81526004016105b690612792565b60405180910390fd5b6105d46001600160a01b038416825f19611a0b565b6105e96001600160a01b038316825f19611a0b565b6001600160a01b038083165f9081526003602090815260408083208785168452909152902054168061062d5760405162461bcd60e51b81526004016105b690612792565b6106426001600160a01b038516825f19611a0b565b6106576001600160a01b038416825f19611a0b565b50505050565b6001600160a01b039182165f908152600360209081526040808320938516835292905220541690565b60605f8260ff1667ffffffffffffffff8111156106a5576106a56127e2565b6040519080825280602002602001820160405280156106f557816020015b604080516080810182525f8082526020808301829052928201819052606082015282525f199092019101816106c35790505b506001600160a01b038087165f9081526003602090815260408083208b8516845290915281205492935091169065ffffffffffff8616900361079457806001600160a01b03166399a3bd236040518163ffffffff1660e01b8152600401602060405180830381865afa15801561076d573d5f5f3e3d5ffd5b505050506040513d601f19601f820116820180604052508101906107919190612777565b94505b604051633e710cd560e11b815265ffffffffffff861660048201525f906001600160a01b03831690637ce219aa9060240160c060405180830381865afa1580156107e0573d5f5f3e3d5ffd5b505050506040513d601f19601f820116820180604052508101906108049190612850565b905060405180608001604052808765ffffffffffff16815260200182606001516001600160701b0316815260200182608001516001600160701b031681526020018260a0015163ffffffff16815250835f81518110610865576108656128e5565b602090810291909101015260015b8560ff168160ff16101561096c576020820151604051633e710cd560e11b815265ffffffffffff821660048201526001600160a01b03851690637ce219aa9060240160c060405180830381865afa1580156108d0573d5f5f3e3d5ffd5b505050506040513d601f19601f820116820180604052508101906108f49190612850565b925060405180608001604052808265ffffffffffff16815260200184606001516001600160701b0316815260200184608001516001600160701b031681526020018460a0015163ffffffff16815250858360ff1681518110610958576109586128e5565b602090810291909101015250600101610873565b5091979650505050505050565b5f5f5f610986878761065d565b90506001600160a01b0381166109ae5760405162461bcd60e51b81526004016105b6906128f9565b806109c2886001600160701b038816611b21565b604051631a4bce9160e21b81526001600160701b038088166004830152861660248201526001600160a01b0382169063692f3a44903490604401604080518083038185885af1158015610a17573d5f5f3e3d5ffd5b50505050506040513d601f19601f82011682018060405250810190610a3c9190612922565b90945092506001600160701b03831615610a6457610a648733856001600160701b0316611c1f565b836001600160701b0316866001600160701b03161115610ca0575f610a898588612963565b90505f87610a978884612982565b610aa191906129bf565b9050610aad8a8a610492565b93508392505f836001600160a01b031663cf2f1e1f84845f6040518463ffffffff1660e01b8152600401610ae3939291906129ec565b602060405180830381865afa158015610afe573d5f5f3e3d5ffd5b505050506040513d601f19601f82011682018060405250810190610b229190612777565b90505f6001600160a01b038c16610bb65760405163d9d8f54160e01b81526001600160a01b0386169063d9d8f541906001600160701b03871690610b6e908890889088906004016129ec565b60206040518083038185885af1158015610b8a573d5f5f3e3d5ffd5b50505050506040513d601f19601f82011682018060405250810190610baf9190612777565b9050610c29565b60405163d9d8f54160e01b81526001600160a01b0386169063d9d8f54190610be6908790879087906004016129ec565b6020604051808303815f875af1158015610c02573d5f5f3e3d5ffd5b505050506040513d601f19601f82011682018060405250810190610c269190612777565b90505b604051636a89ab7960e11b815265ffffffffffff821660048201523360248201526001600160a01b0386169063d51356f2906044015f604051808303815f87803b158015610c75575f5ffd5b505af1158015610c87573d5f5f3e3d5ffd5b50505050610c9786828a8a611c79565b50505050610cac565b610cac825f8686611c79565b505094509492505050565b610cbf6119df565b610cc85f611dc9565b565b60015433906001600160a01b03168114610d025760405163118cdaa760e01b81526001600160a01b03821660048201526024016105b6565b610d0b81611dc9565b50565b5f5f610d1a8787610492565b90506001600160a01b038116610d425760405162461bcd60e51b81526004016105b6906128f9565b80610d56886001600160701b038816611b21565b60405163cf2f1e1f60e01b81525f906001600160a01b0383169063cf2f1e1f90610d88908a908a908a906004016129ec565b602060405180830381865afa158015610da3573d5f5f3e3d5ffd5b505050506040513d601f19601f82011682018060405250810190610dc79190612777565b9050816001600160a01b031663d9d8f541348989856040518563ffffffff1660e01b8152600401610dfa939291906129ec565b60206040518083038185885af1158015610e16573d5f5f3e3d5ffd5b50505050506040513d601f19601f82011682018060405250810190610e3b9190612777565b604051636a89ab7960e11b815265ffffffffffff821660048201523360248201529094506001600160a01b0383169063d51356f2906044015f604051808303815f87803b158015610e8a575f5ffd5b505af1158015610e9c573d5f5f3e3d5ffd5b50505050610eac83855f5f611c79565b50505095945050505050565b5f5f5f610ec5878761065d565b90506001600160a01b038116610eed5760405162461bcd60e51b81526004016105b6906128f9565b80610f01886001600160701b038816611b21565b604051631a4bce9160e21b81526001600160701b038088166004830152861660248201526001600160a01b0382169063692f3a44903490604401604080518083038185885af1158015610f56573d5f5f3e3d5ffd5b50505050506040513d601f19601f82011682018060405250810190610f7b9190612922565b90945092506001600160701b03831615610fa357610fa38733856001600160701b0316611c1f565b836001600160701b0316866001600160701b03161115610ca0575f610fc88588612963565b9050610fde8933836001600160701b0316611c1f565b50610cac825f8686611c79565b5f5f826001600160a01b0316846001600160a01b0316036110745760405162461bcd60e51b815260206004820152603f60248201527f5472616465536572766963653a20637265617465506169723a3a20746f6b656e60448201527f4120616e6420746f6b656e422063616e6e6f74206265207468652073616d650060648201526084016105b6565b6001600160a01b038481165f908152600360209081526040808320878516845290915290205416156111015760405162461bcd60e51b815260206004820152603060248201527f5472616465536572766963653a20637265617465506169723a3a20747261646560448201526f105088185b1c9958591e48195e1a5cdd60821b60648201526084016105b6565b6001600160a01b038381165f9081526003602090815260408083208885168452909152902054161561118e5760405162461bcd60e51b815260206004820152603060248201527f5472616465536572766963653a20637265617465506169723a3a20747261646560448201526f109048185b1c9958591e48195e1a5cdd60821b60648201526084016105b6565b5f84846040516020016111a2929190612a17565b604051602081830303815290604052805190602001209050808585600a6040516111cb9061231f565b6111d793929190612a39565b8190604051809103905ff59050801580156111f4573d5f5f3e3d5ffd5b506001600160a01b038681165f908152600360209081526040808320898516845282529182902080546001600160a01b0319169385169390931790925551919450611243918691889101612a17565b604051602081830303815290604052805190602001209050808486600a60405161126c9061231f565b61127893929190612a39565b8190604051809103905ff5905080158015611295573d5f5f3e3d5ffd5b506001600160a01b038581165f9081526003602090815260408083208a85168452909152902080546001600160a01b03191691831691909117905591506112dc8585610572565b604080516001600160a01b038581168252848116602083015280871692908816917f528a7392e6fd550c4de9e894c55879cd7a03e87f1ac9ddafe8677a2ac1d8cf9f910160405180910390a3509250929050565b6001600160a01b038085165f908152600360209081526040808320898516845290915280822054905163cf2f1e1f60e01b815291921690819063cf2f1e1f90611381908890889088906004016129ec565b602060405180830381865afa15801561139c573d5f5f3e3d5ffd5b505050506040513d601f19601f820116820180604052508101906113c09190612777565b979650505050505050565b5f5f83836040516020016113e0929190612a17565b60405160208183030381529060405280519060200120905060ff60f81b30826040518060200161140f9061231f565b601f1982820381018352601f9091011660408190526114379089908990600a90602001612a39565b60408051601f19818403018152908290526114559291602001612a76565b604051602081830303815290604052805190602001206040516020016114ad94939291906001600160f81b031994909416845260609290921b6001600160601b03191660018401526015830152603582015260550190565b60408051601f198184030181529190528051602090910120949350505050565b6114d56119df565b600180546001600160a01b0383166001600160a01b031990911681179091556115055f546001600160a01b031690565b6001600160a01b03167f38d16b8cac22d99fc7c124b9cd0de2d3fa1faef420bfe791d8c362d765e2270060405160405180910390a350565b60605f8265ffffffffffff1667ffffffffffffffff811115611561576115616127e2565b60405190808252806020026020018201604052801561159a57816020015b61158761232c565b81526020019060019003908161157f5790505b5090508365ffffffffffff165f036115cf576001600160a01b0385165f9081526005602052604090205465ffffffffffff1693505b8365ffffffffffff165f036115e55790506119d8565b835b65ffffffffffff84166115fa8287612a8a565b65ffffffffffff1610801561161657505f8165ffffffffffff16115b156119d4575f60045f6116298985611de2565b65ffffffffffff1916815260208082019290925260409081015f908120825160a08101845281546001600160a01b03811680835265ffffffffffff600160a01b83041696830196909652600160d01b900463ffffffff1693810193909352600101546001600160701b038082166060850152600160701b9091041660808301529092509081906116b890611e33565b915091506116c461232c565b836020015165ffffffffffff165f0361176d576040518061014001604052808665ffffffffffff168152602001855f01516001600160a01b031681526020018381526020018481526020015f65ffffffffffff168152602001856040015163ffffffff16815260200185606001516001600160701b0316815260200185608001516001600160701b0316815260200163ffffffff80168152602001600115158152509050611990565b83516020850151604051633e710cd560e11b815265ffffffffffff90911660048201525f916001600160a01b031690637ce219aa9060240160c060405180830381865afa1580156117c0573d5f5f3e3d5ffd5b505050506040513d601f19601f820116820180604052508101906117e49190612850565b90505f63ffffffff80168260a0015163ffffffff16101561188a57856060015182606001516118139190612aa8565b6001600160701b031663ffffffff801687606001516001600160701b031663ffffffff80168560a0015163ffffffff1686606001516001600160701b031661185b9190612ac7565b6118659190612ade565b61186f9190612af1565b6118799190612ac7565b6118839190612ade565b9050611891565b5063ffffffff5b6040518061014001604052808865ffffffffffff168152602001875f01516001600160a01b03168152602001858152602001868152602001876020015165ffffffffffff168152602001876040015163ffffffff168152602001876060015184606001516118ff9190612aa8565b6001600160701b0316815260200161196284606001516001600160701b0316896060015186606001516119329190612aa8565b6001600160701b031686608001516001600160701b03166119539190612ac7565b61195d9190612ade565b612042565b6001600160701b0316815263ffffffff9092166020830152915165ffffffffffff9081161460409091015290505b808661199c878c612a8a565b65ffffffffffff16815181106119b4576119b46128e5565b602002602001018190525050505050806119cd90612b04565b90506115e7565b5090505b9392505050565b5f546001600160a01b03163314610cc85760405163118cdaa760e01b81523360048201526024016105b6565b604080516001600160a01b038481166024830152604480830185905283518084039091018152606490920183526020820180516001600160e01b031663095ea7b360e01b17905291515f92839290871691611a669190612b24565b5f604051808303815f865af19150503d805f8114611a9f576040519150601f19603f3d011682016040523d82523d5f602084013e611aa4565b606091505b5091509150818015611ace575080511580611ace575080806020019051810190611ace9190612b2f565b611b1a5760405162461bcd60e51b815260206004820152601e60248201527f5472616e7366657248656c7065723a20415050524f56455f4641494c4544000060448201526064016105b6565b5050505050565b6001600160a01b038216611ba157803414611b9d5760405162461bcd60e51b815260206004820152603660248201527f4d6f6e6f54726164653a205f736166655472616e7366657246726f6d3a3a206d6044820152750e6ce5cecc2d8eaca40d2e640dcdee840cadcdeeaced60531b60648201526084016105b6565b5050565b3415611c0a5760405162461bcd60e51b815260206004820152603260248201527f4d6f6e6f54726164653a205f736166655472616e7366657246726f6d3a3a206d604482015271073672e76616c7565206d75737420626520360741b60648201526084016105b6565b611b9d6001600160a01b038316333084612096565b6001600160a01b038316611c60576040516001600160a01b0383169082156108fc029083905f818181858888f19350505050158015610657573d5f5f3e3d5ffd5b611c746001600160a01b03841683836121c1565b505050565b335f9081526005602052604090205465ffffffffffff1680611c9a81612b4e565b9150506040518060a00160405280866001600160a01b031681526020018565ffffffffffff1681526020014263ffffffff168152602001846001600160701b03168152602001836001600160701b031681525060045f611cfa3385611de2565b65ffffffffffff19908116825260208083019390935260409182015f90812085518154878701518887015163ffffffff16600160d01b0263ffffffff60d01b1965ffffffffffff928316600160a01b026001600160d01b03199094166001600160a01b039095169490941792909217929092161782556060870151600190920180546080909801516001600160701b03908116600160701b026001600160e01b031990991693169290921796909617905533815260059093529120805493909216921691909117905550505050565b600180546001600160a01b0319169055610d0b816122d0565b6040516001600160601b0319606084901b1660208201526001600160d01b031960d083901b1660348201525f90603a01604051602081830303815290604052611e2a90612b76565b90505b92915050565b6060805f8390505f816001600160a01b0316630fc63d106040518163ffffffff1660e01b8152600401602060405180830381865afa158015611e77573d5f5f3e3d5ffd5b505050506040513d601f19601f82011682018060405250810190611e9b9190612bb7565b90505f826001600160a01b0316635f64b55b6040518163ffffffff1660e01b8152600401602060405180830381865afa158015611eda573d5f5f3e3d5ffd5b505050506040513d601f19601f82011682018060405250810190611efe9190612bb7565b90506001600160a01b03821615611f7657816001600160a01b03166395d89b416040518163ffffffff1660e01b81526004015f60405180830381865afa158015611f4a573d5f5f3e3d5ffd5b505050506040513d5f823e601f3d908101601f19168201604052611f719190810190612bd2565b611f9b565b6040518060400160405280600b81526020016a2730ba34bb32aa37b5b2b760a91b8152505b94506001600160a01b0381161561201357806001600160a01b03166395d89b416040518163ffffffff1660e01b81526004015f60405180830381865afa158015611fe7573d5f5f3e3d5ffd5b505050506040513d5f823e601f3d908101601f1916820160405261200e9190810190612bd2565b612038565b6040518060400160405280600b81526020016a2730ba34bb32aa37b5b2b760a91b8152505b9350505050915091565b806001600160701b03811681146120915760405162461bcd60e51b8152602060048201526013602482015272746f55696e743131323a206f766572666c6f7760681b60448201526064016105b6565b919050565b604080516001600160a01b0385811660248301528481166044830152606480830185905283518084039091018152608490920183526020820180516001600160e01b03166323b872dd60e01b17905291515f928392908816916120f99190612b24565b5f604051808303815f865af19150503d805f8114612132576040519150601f19603f3d011682016040523d82523d5f602084013e612137565b606091505b50915091508180156121615750805115806121615750808060200190518101906121619190612b2f565b6121b95760405162461bcd60e51b8152602060048201526024808201527f5472616e7366657248656c7065723a205452414e534645525f46524f4d5f46416044820152631253115160e21b60648201526084016105b6565b505050505050565b604080516001600160a01b038481166024830152604480830185905283518084039091018152606490920183526020820180516001600160e01b031663a9059cbb60e01b17905291515f9283929087169161221c9190612b24565b5f604051808303815f865af19150503d805f8114612255576040519150601f19603f3d011682016040523d82523d5f602084013e61225a565b606091505b50915091508180156122845750805115806122845750808060200190518101906122849190612b2f565b611b1a5760405162461bcd60e51b815260206004820152601f60248201527f5472616e7366657248656c7065723a205452414e534645525f4641494c45440060448201526064016105b6565b5f80546001600160a01b038381166001600160a01b0319831681178455604051919092169283917f8be0079c531659141344cd1fd0a4f28419497f9722a3daafe3b4186f6b6457e09190a35050565b6125a480612c6783390190565b60408051610140810182525f808252602082018190526060928201839052828201929092526080810182905260a0810182905260c0810182905260e08101829052610100810182905261012081019190915290565b6001600160a01b0381168114610d0b575f5ffd5b5f5f604083850312156123a6575f5ffd5b82356123b181612381565b915060208301356123c181612381565b809150509250929050565b5f602082840312156123dc575f5ffd5b81356119d881612381565b65ffffffffffff81168114610d0b575f5ffd5b5f5f5f5f6080858703121561240d575f5ffd5b843561241881612381565b9350602085013561242881612381565b92506040850135612438816123e7565b9150606085013560ff8116811461244d575f5ffd5b939692955090935050565b602080825282518282018190525f918401906040840190835b818110156124d557835165ffffffffffff81511684526001600160701b0360208201511660208501526001600160701b03604082015116604085015263ffffffff606082015116606085015250608083019250602084019350600181019050612471565b509095945050505050565b6001600160701b0381168114610d0b575f5ffd5b5f5f5f5f60808587031215612507575f5ffd5b843561251281612381565b9350602085013561252281612381565b92506040850135612532816124e0565b9150606085013561244d816124e0565b5f5f5f5f5f60a08688031215612556575f5ffd5b853561256181612381565b9450602086013561257181612381565b93506040860135612581816124e0565b92506060860135612591816124e0565b915060808601356125a1816123e7565b809150509295509295909350565b5f5f5f606084860312156125c1575f5ffd5b83356125cc81612381565b925060208401356125dc816123e7565b915060408401356125ec816123e7565b809150509250925092565b5f81518084528060208401602086015e5f602082860101526020601f19601f83011685010191505092915050565b5f602082016020835280845180835260408501915060408160051b8601019250602086015f5b8281101561276b57868503603f190184528151805165ffffffffffff168652602081015161268460208801826001600160a01b03169052565b50604081015161014060408801526126a06101408801826125f7565b9050606082015187820360608901526126b982826125f7565b91505060808201516126d5608089018265ffffffffffff169052565b5060a08201516126ed60a089018263ffffffff169052565b5060c082015161270860c08901826001600160701b03169052565b5060e082015161272360e08901826001600160701b03169052565b5061010082015161273d61010089018263ffffffff169052565b50610120820151915061275561012088018315159052565b955050602093840193919091019060010161264b565b50929695505050505050565b5f60208284031215612787575f5ffd5b81516119d8816123e7565b60208082526030908201527f5472616465536572766963653a2072656672657368417070726f76653a3a207460408201526f1c9859195050881b9bdd08195e1a5cdd60821b606082015260800190565b634e487b7160e01b5f52604160045260245ffd5b60405160c0810167ffffffffffffffff81118282101715612819576128196127e2565b60405290565b604051601f8201601f1916810167ffffffffffffffff81118282101715612848576128486127e2565b604052919050565b5f60c0828403128015612861575f5ffd5b5061286a6127f6565b8251612875816123e7565b81526020830151612885816123e7565b6020820152604083015161289881612381565b604082015260608301516128ab816124e0565b606082015260808301516128be816124e0565b608082015260a083015163ffffffff811681146128d9575f5ffd5b60a08201529392505050565b634e487b7160e01b5f52603260045260245ffd5b6020808252600f908201526e151c985919481b9bdd08195e1a5cdd608a1b604082015260600190565b5f5f60408385031215612933575f5ffd5b825161293e816124e0565b60208401519092506123c1816124e0565b634e487b7160e01b5f52601160045260245ffd5b6001600160701b038281168282160390811115611e2d57611e2d61294f565b6001600160701b0381811683821602908116908181146129a4576129a461294f565b5092915050565b634e487b7160e01b5f52601260045260245ffd5b5f6001600160701b038316806129d7576129d76129ab565b806001600160701b0384160491505092915050565b6001600160701b03938416815291909216602082015265ffffffffffff909116604082015260600190565b6001600160601b0319606093841b811682529190921b16601482015260280190565b6001600160a01b03938416815291909216602082015260ff909116604082015260600190565b5f81518060208401855e5f93019283525090919050565b5f610540612a848386612a5f565b84612a5f565b65ffffffffffff8281168282160390811115611e2d57611e2d61294f565b6001600160701b038181168382160190811115611e2d57611e2d61294f565b8082028115828204841417611e2d57611e2d61294f565b5f82612aec57612aec6129ab565b500490565b80820180821115611e2d57611e2d61294f565b5f65ffffffffffff821680612b1b57612b1b61294f565b5f190192915050565b5f611e2a8284612a5f565b5f60208284031215612b3f575f5ffd5b815180151581146119d8575f5ffd5b5f65ffffffffffff821665ffffffffffff8103612b6d57612b6d61294f565b60010192915050565b8051602082015165ffffffffffff1981169190601a821015612bb05765ffffffffffff1965ffffffffffff1983601a0360031b1b82161692505b5050919050565b5f60208284031215612bc7575f5ffd5b81516119d881612381565b5f60208284031215612be2575f5ffd5b815167ffffffffffffffff811115612bf8575f5ffd5b8201601f81018413612c08575f5ffd5b805167ffffffffffffffff811115612c2257612c226127e2565b612c35601f8201601f191660200161281f565b818152856020838501011115612c49575f5ffd5b8160208401602083015e5f9181016020019190915294935050505056fe6101006040525f805465ffffffffffff1916905534801561001e575f5ffd5b506040516125a43803806125a483398101604081905261003d9161007a565b6001600160a01b03928316608052911660a05260ff1660c0523360e0526100c3565b80516001600160a01b0381168114610075575f5ffd5b919050565b5f5f5f6060848603121561008c575f5ffd5b6100958461005f565b92506100a36020850161005f565b9150604084015160ff811681146100b8575f5ffd5b809150509250925092565b60805160a05160c05160e0516124536101515f395f8181610401015281816108c4015281816108f4015261091a01525f81816104be01526109b801525f818161022c015281816109fa01528181610a30015281816111bf0152611d0101525f818161010d01528181610516015281816106af0152818161080f01528181610882015261105c01526124535ff3fe6080604052600436106100bf575f3560e01c806399a3bd231161007c578063d51356f211610057578063d51356f214610442578063d9d8f54114610463578063dbc4ba8714610476578063ddca3f43146104ad575f5ffd5b806399a3bd23146103d2578063c45a0155146103f0578063cf2f1e1f14610423575f5ffd5b806306661abd146100c35780630fc63d10146100fc5780632784e815146101475780635f64b55b1461021b578063692f3a441461024e5780637ce219aa14610281575b5f5ffd5b3480156100ce575f5ffd5b505f546100e09065ffffffffffff1681565b60405165ffffffffffff90911681526020015b60405180910390f35b348015610107575f5ffd5b5061012f7f000000000000000000000000000000000000000000000000000000000000000081565b6040516001600160a01b0390911681526020016100f3565b348015610152575f5ffd5b506101c5610161366004612212565b600160208190525f9182526040909120805491015465ffffffffffff80831692600160301b810490911691600160601b9091046001600160a01b0316906001600160701b0380821691600160701b810490911690600160e01b900463ffffffff1686565b6040805165ffffffffffff97881681529690951660208701526001600160a01b03909316938501939093526001600160701b039081166060850152909116608083015263ffffffff1660a082015260c0016100f3565b348015610226575f5ffd5b5061012f7f000000000000000000000000000000000000000000000000000000000000000081565b61026161025c366004612241565b6104f2565b604080516001600160701b039384168152929091166020830152016100f3565b34801561028c575f5ffd5b5061035761029b366004612212565b6040805160c0810182525f80825260208201819052918101829052606081018290526080810182905260a08101919091525065ffffffffffff9081165f90815260016020818152604092839020835160c08101855281548087168252600160301b810490961692810192909252600160601b9094046001600160a01b03169281019290925291909101546001600160701b038082166060840152600160701b8204166080830152600160e01b900463ffffffff1660a082015290565b6040516100f391905f60c08201905065ffffffffffff835116825265ffffffffffff602084015116602083015260018060a01b0360408401511660408301526001600160701b0360608401511660608301526001600160701b03608084015116608083015263ffffffff60a08401511660a083015292915050565b3480156103dd575f5ffd5b506002546100e09065ffffffffffff1681565b3480156103fb575f5ffd5b5061012f7f000000000000000000000000000000000000000000000000000000000000000081565b34801561042e575f5ffd5b506100e061043d366004612272565b610aad565b34801561044d575f5ffd5b5061046161045c3660046122c6565b610f32565b005b6100e0610471366004612272565b6110d1565b348015610481575f5ffd5b50610495610490366004612212565b611b23565b6040516001600160701b0390911681526020016100f3565b3480156104b8575f5ffd5b506104e07f000000000000000000000000000000000000000000000000000000000000000081565b60405160ff90911681526020016100f3565b6002545f90819065ffffffffffff16810361051157505f905080610aa6565b6105447f0000000000000000000000000000000000000000000000000000000000000000856001600160701b0316611d7a565b835b60025465ffffffffffff16156108625760025465ffffffffffff165f90815260016020819052604090912090810154610593906001600160701b03600160701b909104811690871661230f565b60018201546105af906001600160701b0390811690891661230f565b10156105bb5750610862565b60018101545f906105f79063ffffffff906105e890600160e01b81048316906001600160701b031661230f565b6105f2919061232c565b611e78565b60018301549091505f90610636906001600160701b0380821691600160701b900416610623858361234b565b6001600160701b03166105e8919061230f565b9050806001600160701b0316846001600160701b0316106107235761065b818561234b565b60018401549094506106779083906001600160701b031661234b565b610681908661236a565b945061068c83611ecc565b6001830180546001600160e01b03166001600160e01b031917905582546106ef907f0000000000000000000000000000000000000000000000000000000000000000906001600160a01b03600160601b909104166001600160701b038416611f61565b825465ffffffffffff1990811665ffffffffffff90811780865560028054909316600160301b90910490911617905561085a565b60018301545f9061074f906001600160701b03600160701b82048116916105e89190811690891661230f565b905061075b818761236a565b9550610767818461236a565b60018501549093506001600160701b039081169061078c9063ffffffff90861661230f565b610796919061232c565b6001850180546001600160e01b0316600160e01b63ffffffff938416810291909117918290559004811610156108075760018481018054601c906107e8908490600160e01b900463ffffffff16612389565b92506101000a81548163ffffffff021916908363ffffffff1602179055505b835461084e907f000000000000000000000000000000000000000000000000000000000000000090600160601b90046001600160a01b03166001600160701b038816611f61565b5f945050505050610862565b505050610546565b61086c818661234b565b92506001600160701b038116156108b1576108b17f000000000000000000000000000000000000000000000000000000000000000033836001600160701b0316611f61565b6001600160701b03821615610aa4575f5f7f00000000000000000000000000000000000000000000000000000000000000006001600160a01b03163b11610918577f0000000000000000000000000000000000000000000000000000000000000000610998565b7f00000000000000000000000000000000000000000000000000000000000000006001600160a01b031663017e7e586040518163ffffffff1660e01b8152600401602060405180830381865afa158015610974573d5f5f3e3d5ffd5b505050506040513d601f19601f8201168201806040525081019061099891906123a5565b9050336001600160a01b03821614610a2b575f6109e76127106105e860ff7f0000000000000000000000000000000000000000000000000000000000000000166001600160701b03881661230f565b90506109f3818561234b565b9350610a297f000000000000000000000000000000000000000000000000000000000000000083836001600160701b0316611f61565b505b610a5f7f000000000000000000000000000000000000000000000000000000000000000033856001600160701b0316611f61565b604080516001600160701b038087168252851660208201527fb7450b19733c0654e83e08ccdc9716e46e17ca73c620c0379de9b8b580836e3e910160405180910390a1505b505b9250929050565b6002545f9065ffffffffffff168103610ac757505f610f2b565b6040805160c0810182525f80825260208201819052918101829052606081018290526080810182905260a0810182905265ffffffffffff841615610d9f57505065ffffffffffff8281165f90815260016020818152604092839020835160c0810185528154808716808352600160301b8204881694830194909452600160601b90046001600160a01b031694810194909452909101546001600160701b038082166060850152600160701b8204166080840152600160e01b900463ffffffff1660a083015284921480610ba5575060608101516001600160701b0316155b15610c3857505060025465ffffffffffff9081165f81815260016020818152604092839020835160c08101855281548088168252600160301b810490971692810192909252600160601b9095046001600160a01b03169281019290925292909201546001600160701b038082166060850152600160701b8204166080840152600160e01b900463ffffffff1660a0830152905b805165ffffffffffff1615610d9a57805165ffffffffffff9081165f90815260016020818152604092839020835160c08101855281548087168252600160301b810490961692810192909252600160601b9094046001600160a01b03169281019290925291909101546001600160701b0380821660608401819052600160701b830482166080850152600160e01b90920463ffffffff1660a0840152610ce1919088169061230f565b876001600160701b031682608001516001600160701b0316610d03919061230f565b1115610d985760025465ffffffffffff9081165f81815260016020818152604092839020835160c08101855281548088168252600160301b810490971692810192909252600160601b9095046001600160a01b03169281019290925292909201546001600160701b038082166060850152600160701b8204166080840152600160e01b900463ffffffff1660a0830152935091505b505b610e2d565b505060025465ffffffffffff9081165f81815260016020818152604092839020835160c08101855281548088168252600160301b810490971692810192909252600160601b9095046001600160a01b03169281019290925292909201546001600160701b038082166060850152600160701b8204166080840152600160e01b900463ffffffff1660a0830152905b846001600160701b031681606001516001600160701b0316610e4f919061230f565b866001600160701b031682608001516001600160701b0316610e71919061230f565b1115610e8157519150610f2b9050565b806020015165ffffffffffff165f03610e9c57509050610f2b565b60209081015165ffffffffffff8082165f9081526001808552604091829020825160c08101845281548086168252600160301b810490951696810196909652600160601b9093046001600160a01b03169185019190915201546001600160701b038082166060850152600160701b8204166080840152600160e01b900463ffffffff1660a08301529150610e2d565b9392505050565b65ffffffffffff82165f9081526001602052604090208054600160601b90046001600160a01b03163314610fd35760405162461bcd60e51b815260206004820152603c60248201527f4d6f6e6f54726164653a206368616e67654f726465724f776e65723a3a20796f60448201527f7520617265206e6f74206f776e6572206f6620746865206f726465720000000060648201526084015b60405180910390fd5b805465ffffffffffff1665fffffffffffe190161105a576040805162461bcd60e51b81526020600482015260248101919091527f4d6f6e6f54726164653a206368616e67654f726465724f776e65723a3a20746860448201527f65206f7264657220697320616c72656164792072656d6f76656428646f6e65296064820152608401610fca565b7f00000000000000000000000000000000000000000000000000000000000000006001600160a01b03166110ad5780546001600160a01b038316600160601b026001600160601b03909116178155505050565b80546001600160601b0316600160601b6001600160a01b038416021781555b505050565b5f5f846001600160701b0316116111455760405162461bcd60e51b815260206004820152603260248201527f4d6f6e6f54726164653a206d616b654f726465723a3a20746f6b656e42496e206044820152710616d6f756e742063616e6e6f7420626520360741b6064820152608401610fca565b5f836001600160701b0316116111ba5760405162461bcd60e51b815260206004820152603460248201527f4d6f6e6f54726164653a206d616b654f726465723a3a20746f6b656e4157616e60448201527307420616d6f756e742063616e6e6f7420626520360641b6064820152608401610fca565b6111ed7f0000000000000000000000000000000000000000000000000000000000000000856001600160701b0316611d7a565b5f805481906112039065ffffffffffff166123c0565b82546101009290920a65ffffffffffff818102199093169183160217909155600254165f0361132f57506040805160c0810182525f8082526020808301828152338486019081526001600160701b03808a16606087019081528982166080880190815260a08801878152875465ffffffffffff908116895260019788905299882098518954965195516001600160a01b0316600160601b026001600160601b03968c16600160301b026001600160601b0319909816918c16919091179690961794909416949094178755519590930180549251915163ffffffff16600160e01b026001600160e01b03928516600160701b026001600160e01b03199094169690941695909517919091171617909155546002805465ffffffffffff191691909216908117909155610f2b565b8165ffffffffffff165f036115145760025465ffffffffffff165f90815260016020819052604090912090810154611373906001600160701b03808716911661230f565b6001820154611395906001600160701b0380891691600160701b90041661230f565b116113fc5760405162461bcd60e51b815260206004820152603160248201527f4d6f6e6f54726164653a206d616b654f726465723a3a20796f75722070726963604482015270329036bab9ba101f103a37b827b93232b960791b6064820152608401610fca565b5f8054825465ffffffffffff1990811665ffffffffffff928316179093556040805160c0810182528381526002805484166020808401918252338486019081526001600160701b03808e16606087019081528d82166080880190815260a088018b81528b548b168c52600195869052988b2097518854965194516001600160a01b0316600160601b026001600160601b03958c16600160301b026001600160601b0319909816918c1691909117969096179390931694909417865592519490910180549151955163ffffffff16600160e01b026001600160e01b03968416600160701b026001600160e01b03199093169590931694909417179390931692909217905591548254909316921691821790559050610f2b565b65ffffffffffff82165f90815260016020819052604082209081015490916001600160701b0390911690036115a35760405162461bcd60e51b815260206004820152602f60248201527f4d6f6e6f54726164653a206d616b654f726465723a3a206265666f72654f726460448201526e195c881a5cc81b9bdd08195e1a5cdd608a1b6064820152608401610fca565b805465ffffffffffff1665fffffffffffe190161161e5760405162461bcd60e51b815260206004820152603360248201527f4d6f6e6f54726164653a206d616b654f726465723a3a206265666f72654f726460448201527265722069732072656d6f76656428646f6e652960681b6064820152608401610fca565b6001810154611639906001600160701b03808716911661230f565b600182015461165b906001600160701b0380891691600160701b90041661230f565b11156116c75760405162461bcd60e51b815260206004820152603560248201527f4d6f6e6f54726164653a206d616b654f726465723a3a20796f75722070726963604482015274329036bab9ba101e1e903132b337b932a7b93232b960591b6064820152608401610fca565b8054600160301b900465ffffffffffff165f036117ed575f80548254600160301b65ffffffffffff928316810265ffffffffffff60301b19909216919091179093556040805160c08101825286831681526020808201858152338385019081526001600160701b03808d16606086019081528c82166080870190815260a087018a81528a548a168b52600196879052978a2096518754955194516001600160a01b0316600160601b026001600160601b03958b16909c026001600160601b0319909616908a16179490941792909216989098178455519290910180549151935163ffffffff16600160e01b026001600160e01b03948816600160701b026001600160e01b0319909316939097169290921717919091169390931790925554169050610f2b565b8054600160301b900465ffffffffffff165f90815260016020819052604082209081015490916001600160701b0390911690036118835760405162461bcd60e51b815260206004820152602e60248201527f4d6f6e6f54726164653a206d616b654f726465723a3a2061667465724f72646560448201526d1c881a5cc81b9bdd08195e1a5cdd60921b6064820152608401610fca565b805465ffffffffffff1665fffffffffffe19016118f75760405162461bcd60e51b815260206004820152602c60248201527f4d6f6e6f54726164653a206d616b654f726465723a3a2061667465724f72646560448201526b1c881a5cc81c995b5bdd995960a21b6064820152608401610fca565b6001810154611912906001600160701b03808816911661230f565b6001820154611934906001600160701b03808a1691600160701b90041661230f565b1161199d5760405162461bcd60e51b815260206004820152603360248201527f4d6f6e6f54726164653a206d616b654f726465723a3a20796f75722070726963604482015272329036bab9ba101f1030b33a32b927b93232b960691b6064820152608401610fca565b6040805160c08101825265ffffffffffff80871682528454600160301b9081900482166020808501918252338587019081526001600160701b03808e16606088019081528d8216608089019081525f60a08a0181815281548a1682526001968790528b82209a518b54985196516001600160a01b0316600160601b026001600160601b03978c168b026001600160601b0319909a16918c1691909117989098179590951696909617895590519790930180549351925163ffffffff16600160e01b026001600160e01b03938316600160701b026001600160e01b031990951698909216979097179290921716179093558254865490831690910265ffffffffffff60301b19919091161785558154845465ffffffffffff1916908216178455905491519116907f2336f98edea03fae5932cf9f26ce4784b74d1b3dec618bb0b78f68ba0c53fbb390611b0790899089906001600160701b0392831681529116602082015260400190565b60405180910390a250505f5465ffffffffffff16949350505050565b65ffffffffffff81165f9081526001602052604081208054600160601b90046001600160a01b03163314611bbf5760405162461bcd60e51b815260206004820152603760248201527f4d6f6e6f54726164653a2063616e63656c4f726465723a3a20796f752061726560448201527f206e6f74206f776e6572206f6620746865206f726465720000000000000000006064820152608401610fca565b805465ffffffffffff1665fffffffffffe1901611c445760405162461bcd60e51b815260206004820152603b60248201527f4d6f6e6f54726164653a2063616e63656c4f726465723a3a20746865206f726460448201527f657220697320616c72656164792072656d6f76656428646f6e652900000000006064820152608401610fca565b611c4d81611ecc565b60025465ffffffffffff808516911603611c8957805460028054600160301b90920465ffffffffffff1665ffffffffffff199092169190911790555b805465ffffffffffff191665ffffffffffff17815560018101545f90611ccc9063ffffffff906105e8906001600160701b03811690600160e01b9004831661230f565b6001830154909150611ce89082906001600160701b031661234b565b92506001600160701b03831615611d73578154611d40907f000000000000000000000000000000000000000000000000000000000000000090600160601b90046001600160a01b03166001600160701b038616611f61565b60405165ffffffffffff8516907fc56e02aba5fc42d044055fc90697eeddfd7802afd1cc3ffaabb94e7890d4d58b905f90a25b5050919050565b6001600160a01b038216611dfa57803414611df65760405162461bcd60e51b815260206004820152603660248201527f4d6f6e6f54726164653a205f736166655472616e7366657246726f6d3a3a206d6044820152750e6ce5cecc2d8eaca40d2e640dcdee840cadcdeeaced60531b6064820152608401610fca565b5050565b3415611e635760405162461bcd60e51b815260206004820152603260248201527f4d6f6e6f54726164653a205f736166655472616e7366657246726f6d3a3a206d604482015271073672e76616c7565206d75737420626520360741b6064820152608401610fca565b611df66001600160a01b038316333084611fbc565b806001600160701b0381168114611ec75760405162461bcd60e51b8152602060048201526013602482015272746f55696e743131323a206f766572666c6f7760681b6044820152606401610fca565b919050565b805465ffffffffffff1615611f1557805465ffffffffffff8082165f908152600160205260409020805465ffffffffffff60301b1916600160301b938490049092169092021790555b8054600160301b900465ffffffffffff1615611f5e578054600160301b810465ffffffffffff9081165f908152600160205260409020805465ffffffffffff1916919092161790555b50565b6001600160a01b038316611fa8576040516001600160a01b0383169082156108fc029083905f818181858888f19350505050158015611fa2573d5f5f3e3d5ffd5b50505050565b6110cc6001600160a01b03841683836120e7565b604080516001600160a01b0385811660248301528481166044830152606480830185905283518084039091018152608490920183526020820180516001600160e01b03166323b872dd60e01b17905291515f9283929088169161201f91906123e8565b5f604051808303815f865af19150503d805f8114612058576040519150601f19603f3d011682016040523d82523d5f602084013e61205d565b606091505b509150915081801561208757508051158061208757508080602001905181019061208791906123fe565b6120df5760405162461bcd60e51b8152602060048201526024808201527f5472616e7366657248656c7065723a205452414e534645525f46524f4d5f46416044820152631253115160e21b6064820152608401610fca565b505050505050565b604080516001600160a01b038481166024830152604480830185905283518084039091018152606490920183526020820180516001600160e01b031663a9059cbb60e01b17905291515f9283929087169161214291906123e8565b5f604051808303815f865af19150503d805f811461217b576040519150601f19603f3d011682016040523d82523d5f602084013e612180565b606091505b50915091508180156121aa5750805115806121aa5750808060200190518101906121aa91906123fe565b6121f65760405162461bcd60e51b815260206004820152601f60248201527f5472616e7366657248656c7065723a205452414e534645525f4641494c4544006044820152606401610fca565b5050505050565b803565ffffffffffff81168114611ec7575f5ffd5b5f60208284031215612222575f5ffd5b610f2b826121fd565b80356001600160701b0381168114611ec7575f5ffd5b5f5f60408385031215612252575f5ffd5b61225b8361222b565b91506122696020840161222b565b90509250929050565b5f5f5f60608486031215612284575f5ffd5b61228d8461222b565b925061229b6020850161222b565b91506122a9604085016121fd565b90509250925092565b6001600160a01b0381168114611f5e575f5ffd5b5f5f604083850312156122d7575f5ffd5b6122e0836121fd565b915060208301356122f0816122b2565b809150509250929050565b634e487b7160e01b5f52601160045260245ffd5b8082028115828204841417612326576123266122fb565b92915050565b5f8261234657634e487b7160e01b5f52601260045260245ffd5b500490565b6001600160701b038281168282160390811115612326576123266122fb565b6001600160701b038181168382160190811115612326576123266122fb565b63ffffffff8181168382160190811115612326576123266122fb565b5f602082840312156123b5575f5ffd5b8151610f2b816122b2565b5f65ffffffffffff821665ffffffffffff81036123df576123df6122fb565b60010192915050565b5f82518060208501845e5f920191825250919050565b5f6020828403121561240e575f5ffd5b81518015158114610f2b575f5ffdfea26469706673582212205e43ca6ec8feaa3abcac79324847416263bd6a90cc43f124550118ada27c3b8a64736f6c634300081c0033a26469706673582212209647c9faf858a607e3b13ec9406c5194162e75e57ac305d6895aae195d7159a564736f6c634300081c0033",
  "linkReferences": {},
  "deployedLinkReferences": {},
  "immutableReferences": {},
  "inputSourceName": "project/contracts/orderbook/TradeService.sol",
  "buildInfoId": "solc-0_8_28-63f0ac7f7f485453dfb6e8b3a5c6a79b453058bf"
}